:0300000002073BB9
:0B000B00853080853190F5A0D20032D6
:100500007F828487898C8E919396989B9DA0A2A4CC
:10051000A7A9ACAEB0B3B5B7BABCBEC0C2C4C7C958
:10052000CBCDCFD1D3D4D6D8DADCDDDFE1E2E4E540
:10053000E7E8EAEBECEEEFF0F1F2F3F4F5F6F7F8BA
:10054000F9F9FAFBFBFCFCFCFDFDFDFEFEFEFEFEE8
:10055000FEFEFEFEFDFDFDFCFCFBFBFAFAF9F8F7E2
:10056000F7F6F5F4F3F2F1EFEEEDECEAE9E8E6E5A3
:10057000E3E1E0DEDDDBD9D7D5D4D2D0CECCCAC81A
:10058000C5C3C1BFBDBBB8B6B4B1AFADAAA8A6A321
:10059000A19E9C999794928F8D8A888583807E7B7B
:1005A000797674716F6C6A676562605D5B585654EA
:1005B000514F4D4A484643413F3D3B393634323036
:1005C0002E2C2A2927252321201E1D1B191816151C
:1005D000141211100F0D0C0B0A0908070706050469
:1005E00004030302020101010000000000000000FA
:1005F00000010101020202030304050506070809C0
:100700000A0B0C0D0E0F101213141617191A1C1DBC
:100710001F21222426282A2B2D2F313335373A3C0E
:100720003E40424447494B4E505255575A5C5E61D9
:0F0730006366686B6D707275777A7CC201C20266
:10073F00C203C204C205C206C2077580FF7590FFCF
:0F074F0075A0FF75A882758922758CC1758AC146
:0F075E009005007A697B00EB93F5307C68EC9393
:0E076D00F5317DD1ED93F532853080853190E8
:10077B008532A0D201D2B3D2B4D200D28C3000FDDC
:0F078B00C200DA357A6920010620021220031E0F
:0F079A00D204C2070B0C7D00C201D2020207C4B9
:0F07A900D204C2060B7C000DC202D2030207C4A9
:0F07B800D204C2057B000C0DC203D201200451F4
:0F07C70074012BFB30050E90070093F530D2051F
:0F07D6009005000207E140F093F53074012CFC10
:0E07E50030060E90070093F531D20690050005
:0F07F3000207FB40F093F53174012DFD30070E26
:1008020090070093F532D20790050002078840F066
:1008120093F532020788C204EB93F530EC93F5317D
:07082200ED93F53202078897
:00000001FF
